{
  "_format": "hh-sol-artifact-1",
  "contractName": "CardBattleGame",
  "sourceName": "contracts/CardGameBattle.sol",
  "abi": [
    {
      "inputs": [
        {
          "internalType": "address",
          "name": "_nftCollectionAddress",
          "type": "address"
        }
      ],
      "stateMutability": "nonpayable",
      "type": "constructor"
    },
    {
      "inputs": [],
      "name": "InvalidShortString",
      "type": "error"
    },
    {
      "inputs": [
        {
          "internalType": "address",
          "name": "owner",
          "type": "address"
        }
      ],
      "name": "OwnableInvalidOwner",
      "type": "error"
    },
    {
      "inputs": [
        {
          "internalType": "address",
          "name": "account",
          "type": "address"
        }
      ],
      "name": "OwnableUnauthorizedAccount",
      "type": "error"
    },
    {
      "inputs": [
        {
          "internalType": "string",
          "name": "str",
          "type": "string"
        }
      ],
      "name": "StringTooLong",
      "type": "error"
    },
    {
      "anonymous": false,
      "inputs": [
        {
          "indexed": true,
          "internalType": "uint256",
          "name": "battleId",
          "type": "uint256"
        },
        {
          "indexed": false,
          "internalType": "string",
          "name": "name",
          "type": "string"
        },
        {
          "indexed": true,
          "internalType": "address",
          "name": "player1",
          "type": "address"
        }
      ],
      "name": "BattleRegistered",
      "type": "event"
    },
    {
      "anonymous": false,
      "inputs": [
        {
          "indexed": true,
          "internalType": "uint256",
          "name": "battleId",
          "type": "uint256"
        },
        {
          "indexed": true,
          "internalType": "address",
          "name": "winner",
          "type": "address"
        },
        {
          "indexed": true,
          "internalType": "address",
          "name": "loser",
          "type": "address"
        },
        {
          "indexed": false,
          "internalType": "uint256",
          "name": "winnerExp",
          "type": "uint256"
        },
        {
          "indexed": false,
          "internalType": "uint256",
          "name": "loserExp",
          "type": "uint256"
        }
      ],
      "name": "BattleResolved",
      "type": "event"
    },
    {
      "anonymous": false,
      "inputs": [],
      "name": "EIP712DomainChanged",
      "type": "event"
    },
    {
      "anonymous": false,
      "inputs": [
        {
          "indexed": true,
          "internalType": "address",
          "name": "previousOwner",
          "type": "address"
        },
        {
          "indexed": true,
          "internalType": "address",
          "name": "newOwner",
          "type": "address"
        }
      ],
      "name": "OwnershipTransferred",
      "type": "event"
    },
    {
      "anonymous": false,
      "inputs": [
        {
          "indexed": true,
          "internalType": "address",
          "name": "playerAddress",
          "type": "address"
        },
        {
          "indexed": false,
          "internalType": "string",
          "name": "name",
          "type": "string"
        }
      ],
      "name": "PlayerRegistered",
      "type": "event"
    },
    {
      "inputs": [
        {
          "internalType": "uint256",
          "name": "",
          "type": "uint256"
        }
      ],
      "name": "battles",
      "outputs": [
        {
          "internalType": "string",
          "name": "name",
          "type": "string"
        },
        {
          "internalType": "address",
          "name": "player1",
          "type": "address"
        },
        {
          "internalType": "address",
          "name": "player2",
          "type": "address"
        },
        {
          "internalType": "uint256",
          "name": "player1TokenId",
          "type": "uint256"
        },
        {
          "internalType": "uint256",
          "name": "player2TokenId",
          "type": "uint256"
        },
        {
          "internalType": "uint256",
          "name": "startTime",
          "type": "uint256"
        },
        {
          "internalType": "bool",
          "name": "resolved",
          "type": "bool"
        }
      ],
      "stateMutability": "view",
      "type": "function"
    },
    {
      "inputs": [],
      "name": "eip712Domain",
      "outputs": [
        {
          "internalType": "bytes1",
          "name": "fields",
          "type": "bytes1"
        },
        {
          "internalType": "string",
          "name": "name",
          "type": "string"
        },
        {
          "internalType": "string",
          "name": "version",
          "type": "string"
        },
        {
          "internalType": "uint256",
          "name": "chainId",
          "type": "uint256"
        },
        {
          "internalType": "address",
          "name": "verifyingContract",
          "type": "address"
        },
        {
          "internalType": "bytes32",
          "name": "salt",
          "type": "bytes32"
        },
        {
          "internalType": "uint256[]",
          "name": "extensions",
          "type": "uint256[]"
        }
      ],
      "stateMutability": "view",
      "type": "function"
    },
    {
      "inputs": [
        {
          "internalType": "enum CardBattleGame.CharacterClass",
          "name": "_class",
          "type": "uint8"
        }
      ],
      "name": "getBaseAttack",
      "outputs": [
        {
          "internalType": "uint256",
          "name": "",
          "type": "uint256"
        }
      ],
      "stateMutability": "pure",
      "type": "function"
    },
    {
      "inputs": [
        {
          "internalType": "enum CardBattleGame.CharacterClass",
          "name": "_class",
          "type": "uint8"
        }
      ],
      "name": "getBaseDefense",
      "outputs": [
        {
          "internalType": "uint256",
          "name": "",
          "type": "uint256"
        }
      ],
      "stateMutability": "pure",
      "type": "function"
    },
    {
      "inputs": [
        {
          "internalType": "enum CardBattleGame.CharacterClass",
          "name": "_class",
          "type": "uint8"
        }
      ],
      "name": "getBaseHealth",
      "outputs": [
        {
          "internalType": "uint256",
          "name": "",
          "type": "uint256"
        }
      ],
      "stateMutability": "pure",
      "type": "function"
    },
    {
      "inputs": [
        {
          "internalType": "enum CardBattleGame.CharacterClass",
          "name": "_class",
          "type": "uint8"
        }
      ],
      "name": "getBaseMana",
      "outputs": [
        {
          "internalType": "uint256",
          "name": "",
          "type": "uint256"
        }
      ],
      "stateMutability": "pure",
      "type": "function"
    },
    {
      "inputs": [
        {
          "internalType": "address",
          "name": "_player",
          "type": "address"
        },
        {
          "internalType": "uint256",
          "name": "_tokenId",
          "type": "uint256"
        }
      ],
      "name": "getCharacterStats",
      "outputs": [
        {
          "components": [
            {
              "internalType": "enum CardBattleGame.CharacterClass",
              "name": "class",
              "type": "uint8"
            },
            {
              "internalType": "uint256",
              "name": "level",
              "type": "uint256"
            },
            {
              "internalType": "uint256",
              "name": "exp",
              "type": "uint256"
            },
            {
              "internalType": "uint256",
              "name": "health",
              "type": "uint256"
            },
            {
              "internalType": "uint256",
              "name": "mana",
              "type": "uint256"
            },
            {
              "internalType": "uint256",
              "name": "attack",
              "type": "uint256"
            },
            {
              "internalType": "uint256",
              "name": "defense",
              "type": "uint256"
            },
            {
              "internalType": "uint256",
              "name": "wins",
              "type": "uint256"
            },
            {
              "internalType": "uint256",
              "name": "losses",
              "type": "uint256"
            }
          ],
          "internalType": "struct CardBattleGame.CharacterStats",
          "name": "",
          "type": "tuple"
        }
      ],
      "stateMutability": "view",
      "type": "function"
    },
    {
      "inputs": [
        {
          "internalType": "uint256",
          "name": "_level",
          "type": "uint256"
        }
      ],
      "name": "getRequiredExp",
      "outputs": [
        {
          "internalType": "uint256",
          "name": "",
          "type": "uint256"
        }
      ],
      "stateMutability": "pure",
      "type": "function"
    },
    {
      "inputs": [
        {
          "internalType": "address",
          "name": "addr",
          "type": "address"
        }
      ],
      "name": "isPlayer",
      "outputs": [
        {
          "internalType": "bool",
          "name": "",
          "type": "bool"
        }
      ],
      "stateMutability": "view",
      "type": "function"
    },
    {
      "inputs": [],
      "name": "nextBattleId",
      "outputs": [
        {
          "internalType": "uint256",
          "name": "",
          "type": "uint256"
        }
      ],
      "stateMutability": "view",
      "type": "function"
    },
    {
      "inputs": [],
      "name": "nftCollection",
      "outputs": [
        {
          "internalType": "contract IERC721Enumerable",
          "name": "",
          "type": "address"
        }
      ],
      "stateMutability": "view",
      "type": "function"
    },
    {
      "inputs": [],
      "name": "owner",
      "outputs": [
        {
          "internalType": "address",
          "name": "",
          "type": "address"
        }
      ],
      "stateMutability": "view",
      "type": "function"
    },
    {
      "inputs": [
        {
          "internalType": "address",
          "name": "",
          "type": "address"
        }
      ],
      "name": "players",
      "outputs": [
        {
          "internalType": "string",
          "name": "name",
          "type": "string"
        },
        {
          "internalType": "address",
          "name": "playerAddress",
          "type": "address"
        },
        {
          "internalType": "uint256",
          "name": "totalWins",
          "type": "uint256"
        },
        {
          "internalType": "uint256",
          "name": "totalLosses",
          "type": "uint256"
        },
        {
          "internalType": "uint256",
          "name": "experience",
          "type": "uint256"
        }
      ],
      "stateMutability": "view",
      "type": "function"
    },
    {
      "inputs": [
        {
          "internalType": "string",
          "name": "_battleName",
          "type": "string"
        }
      ],
      "name": "registerBattle",
      "outputs": [
        {
          "internalType": "uint256",
          "name": "",
          "type": "uint256"
        }
      ],
      "stateMutability": "nonpayable",
      "type": "function"
    },
    {
      "inputs": [
        {
          "internalType": "string",
          "name": "_name",
          "type": "string"
        }
      ],
      "name": "registerPlayer",
      "outputs": [],
      "stateMutability": "nonpayable",
      "type": "function"
    },
    {
      "inputs": [],
      "name": "renounceOwnership",
      "outputs": [],
      "stateMutability": "nonpayable",
      "type": "function"
    },
    {
      "inputs": [
        {
          "internalType": "uint256",
          "name": "_battleId",
          "type": "uint256"
        },
        {
          "internalType": "address",
          "name": "_player2",
          "type": "address"
        },
        {
          "internalType": "bool",
          "name": "isComputer",
          "type": "bool"
        },
        {
          "internalType": "uint256",
          "name": "_player1TokenId",
          "type": "uint256"
        },
        {
          "internalType": "uint256",
          "name": "_player2TokenId",
          "type": "uint256"
        },
        {
          "internalType": "address",
          "name": "_winner",
          "type": "address"
        },
        {
          "internalType": "uint256",
          "name": "_winnerExp",
          "type": "uint256"
        },
        {
          "internalType": "uint256",
          "name": "_loserExp",
          "type": "uint256"
        },
        {
          "internalType": "uint8",
          "name": "v",
          "type": "uint8"
        },
        {
          "internalType": "bytes32",
          "name": "r",
          "type": "bytes32"
        },
        {
          "internalType": "bytes32",
          "name": "s",
          "type": "bytes32"
        }
      ],
      "name": "resolveBattle",
      "outputs": [],
      "stateMutability": "nonpayable",
      "type": "function"
    },
    {
      "inputs": [],
      "name": "totalBattle",
      "outputs": [
        {
          "internalType": "uint256",
          "name": "",
          "type": "uint256"
        }
      ],
      "stateMutability": "view",
      "type": "function"
    },
    {
      "inputs": [
        {
          "internalType": "address",
          "name": "newOwner",
          "type": "address"
        }
      ],
      "name": "transferOwnership",
      "outputs": [],
      "stateMutability": "nonpayable",
      "type": "function"
    }
  ],
  "bytecode": "0x6101606040523480156200001257600080fd5b506040516200243338038062002433833981016040819052620000359162000258565b604080518082018252600e81526d43617264426174746c6547616d6560901b602080830191909152825180840190935260018352603160f81b908301529033806200009b57604051631e4fbdf760e01b8152600060048201526024015b60405180910390fd5b620000a6816200018c565b50620000b4826001620001dc565b61012052620000c5816002620001dc565b61014052815160208084019190912060e052815190820120610100524660a0526200015360e05161010051604080517f8b73c3c69bb8fe3d512ecc4cf759cc79239f7b179b0ffacaa9a75d522b39400f60208201529081019290925260608201524660808201523060a082015260009060c00160405160208183030381529060405280519060200120905090565b60805250503060c052600380546001600160a01b0319166001600160a01b03929092169190911790556000600555600160045562000473565b600080546001600160a01b038381166001600160a01b0319831681178455604051919092169283917f8be0079c531659141344cd1fd0a4f28419497f9722a3daafe3b4186f6b6457e09190a35050565b6000602083511015620001fc57620001f48362000215565b90506200020f565b8162000209848262000331565b5060ff90505b92915050565b600080829050601f8151111562000243578260405163305a27a960e01b8152600401620000929190620003fd565b805162000250826200044e565b179392505050565b6000602082840312156200026b57600080fd5b81516001600160a01b03811681146200028357600080fd5b9392505050565b634e487b7160e01b600052604160045260246000fd5b600181811c90821680620002b557607f821691505b602082108103620002d657634e487b7160e01b600052602260045260246000fd5b50919050565b601f8211156200032c576000816000526020600020601f850160051c81016020861015620003075750805b601f850160051c820191505b81811015620003285782815560010162000313565b5050505b505050565b81516001600160401b038111156200034d576200034d6200028a565b62000365816200035e8454620002a0565b84620002dc565b602080601f8311600181146200039d5760008415620003845750858301515b600019600386901b1c1916600185901b17855562000328565b600085815260208120601f198616915b82811015620003ce57888601518255948401946001909101908401620003ad565b5085821015620003ed5787850151600019600388901b60f8161c191681555b5050505050600190811b01905550565b60006020808352835180602085015260005b818110156200042d578581018301518582016040015282016200040f565b506000604082860101526040601f19601f8301168501019250505092915050565b80516020808301519190811015620002d65760001960209190910360031b1b16919050565b60805160a05160c05160e051610100516101205161014051611f65620004ce60003960006116680152600061163601526000611768015260006117400152600061169b015260006116c5015260006116ef0152611f656000f3fe608060405234801561001057600080fd5b50600436106101515760003560e01c8063715018a6116100cd578063b57f99bd11610081578063e2eb41ff11610066578063e2eb41ff146102ca578063e50976a3146102ee578063f2fde38b1461030157600080fd5b8063b57f99bd14610297578063bb6ae9dd146102aa57600080fd5b80638da5cb5b116100b25780638da5cb5b1461026a57806399c8268b1461027b578063b3446f851461028457600080fd5b8063715018a61461024757806384b0196e1461024f57600080fd5b806341fea931116101245780635a479890116101095780635a479890146101e3578063606d2e96146101f65780636588103b1461021c57600080fd5b806341fea931146101bb57806357feac1d146101ce57600080fd5b806309c95e1014610156578063124cc8fc1461017e5780632f9f11d41461019f57806331a6ff66146101b2575b600080fd5b61016961016436600461192c565b610314565b60405190151581526020015b60405180910390f35b61019161018c366004611950565b610344565b604051908152602001610175565b6101916101ad366004611969565b610357565b61019160045481565b6101916101c9366004611969565b610426565b6101e16101dc3660046119a0565b6104ed565b005b6101916101f1366004611a5c565b610ac8565b610209610204366004611950565b610c1a565b6040516101759796959493929190611b53565b60035461022f906001600160a01b031681565b6040516001600160a01b039091168152602001610175565b6101e1610cef565b610257610d03565b6040516101759796959493929190611ba2565b6000546001600160a01b031661022f565b61019160055481565b6101e1610292366004611a5c565b610d65565b6101916102a5366004611969565b610e52565b6102bd6102b8366004611c57565b610f21565b6040516101759190611c99565b6102dd6102d836600461192c565b6110f0565b604051610175959493929190611d1b565b6101916102fc366004611969565b6111b1565b6101e161030f36600461192c565b6112c0565b6001600160a01b0381166000908152600660205260408120805482919061033a90611d5b565b9050119050919050565b6000610351826064611dab565b92915050565b60008082600581111561036c5761036c611c83565b0361037957506050919050565b600182600581111561038d5761038d611c83565b0361039a57506046919050565b60028260058111156103ae576103ae611c83565b036103bb5750604b919050565b60038260058111156103cf576103cf611c83565b036103dc57506055919050565b60048260058111156103f0576103f0611c83565b036103fd5750605a919050565b600582600581111561041157610411611c83565b0361041e5750603c919050565b506046919050565b60008082600581111561043b5761043b611c83565b0361044857506032919050565b600182600581111561045c5761045c611c83565b036104695750603c919050565b600282600581111561047d5761047d611c83565b0361048a57506046919050565b600382600581111561049e5761049e611c83565b036104ab5750603c919050565b60048260058111156104bf576104bf611c83565b036104cc57506064919050565b60058260058111156104e0576104e0611c83565b0361041e5750605a919050565b60008b8152600760205260409020600681015460ff16156105555760405162461bcd60e51b815260206004820152601760248201527f426174746c6520616c7265616479207265736f6c76656400000000000000000060448201526064015b60405180910390fd5b60028101546001600160a01b0316156105d65760405162461bcd60e51b815260206004820152602260248201527f426174746c6520616c7265616479206861732061207365636f6e6420706c617960448201527f6572000000000000000000000000000000000000000000000000000000000000606482015260840161054c565b6001600160a01b038b16158015906105fe575060018101546001600160a01b038c8116911614155b61064a5760405162461bcd60e51b815260206004820152601760248201527f496e76616c696420706c61796572322061646472657373000000000000000000604482015260640161054c565b60018101546003546040516331a9108f60e11b8152600481018c90526001600160a01b039283169290911690636352211e90602401602060405180830381865afa15801561069c573d6000803e3d6000fd5b505050506040513d601f19601f820116820180604052508101906106c09190611dc2565b6001600160a01b0316146107215760405162461bcd60e51b815260206004820152602260248201527f506c6179657231206d757374206f776e2074686520737065636966696564204e604482015261119560f21b606482015260840161054c565b60018101546001600160a01b038881169116148061075057508a6001600160a01b0316876001600160a01b0316145b61079c5760405162461bcd60e51b815260206004820152600e60248201527f496e76616c69642077696e6e6572000000000000000000000000000000000000604482015260640161054c565b89610871576003546040516331a9108f60e11b8152600481018a90526001600160a01b038d8116921690636352211e90602401602060405180830381865afa1580156107ec573d6000803e3d6000fd5b505050506040513d601f19601f820116820180604052508101906108109190611dc2565b6001600160a01b0316146108715760405162461bcd60e51b815260206004820152602260248201527f506c6179657232206d757374206f776e2074686520737065636966696564204e604482015261119560f21b606482015260840161054c565b604080517f055d0a54f0142c13f163a904e22ebaa4024c50759b5482ebfa63fa4f888aeeae60208201529081018d90526001600160a01b03808d1660608301528b1515608083015260a082018b905260c082018a9052881660e08201526101008101879052610120810186905260009061014001604051602081830303815290604052805190602001209050600061090882611317565b905061091c6000546001600160a01b031690565b6001600160a01b031660018288888860405160008152602001604052604051610961949392919093845260ff9290921660208401526040830152606082015260800190565b6020604051602081039080840390855afa158015610983573d6000803e3d6000fd5b505050602060405103516001600160a01b0316146109e35760405162461bcd60e51b815260206004820152601160248201527f496e76616c6964207369676e6174757265000000000000000000000000000000604482015260640161054c565b60028301805473ffffffffffffffffffffffffffffffffffffffff19166001600160a01b038f16179055600383018b9055600483018a905560068301805460ff19166001179055610a368e8a8a8a61135f565b60018301546001600160a01b038a8116911614610a605760018301546001600160a01b0316610a62565b8c5b6001600160a01b0316896001600160a01b03168f7f9ce4b2a03ea6b685ac0ed683f01e0ff861705a76fd5c73c688306878315a959d8b8b604051610ab0929190918252602082015260400190565b60405180910390a45050505050505050505050505050565b6004805460009182919082610adc83611ddf565b909155506040805160e08101825285815233602080830191909152600082840181905260608301819052608083018190524260a084015260c08301819052848152600790915291909120815192935090918190610b399082611e49565b5060208201516001820180546001600160a01b0392831673ffffffffffffffffffffffffffffffffffffffff19918216179091556040840151600284018054919093169116179055606082015160038201556080820151600482015560a082015160058083019190915560c0909201516006909101805491151560ff199092169190911790558054906000610bcd83611ddf565b9190505550336001600160a01b0316817f98d2fd15d6c82dec8bb1829d58887fba2b80fb139186c056f9e66134c1b62f4e85604051610c0c9190611f09565b60405180910390a392915050565b600760205260009081526040902080548190610c3590611d5b565b80601f0160208091040260200160405190810160405280929190818152602001828054610c6190611d5b565b8015610cae5780601f10610c8357610100808354040283529160200191610cae565b820191906000526020600020905b815481529060010190602001808311610c9157829003601f168201915b5050506001840154600285015460038601546004870154600588015460069098015496976001600160a01b0394851697939094169550909350919060ff1687565b610cf761158c565b610d0160006115d2565b565b600060608060008060006060610d1761162f565b610d1f611661565b604080516000808252602082019092527f0f000000000000000000000000000000000000000000000000000000000000009b939a50919850469750309650945092509050565b3360009081526006602052604090208054610d7f90611d5b565b159050610dce5760405162461bcd60e51b815260206004820152601960248201527f506c6179657220616c7265616479207265676973746572656400000000000000604482015260640161054c565b336000908152600660205260409020610de78282611e49565b503360008181526006602052604090819020600101805473ffffffffffffffffffffffffffffffffffffffff191683179055517fe04d23b73ae3d3b27074da9719b5a4cd521395aaf86bfe7e374933ecb567731a90610e47908490611f09565b60405180910390a250565b600080826005811115610e6757610e67611c83565b03610e745750603c919050565b6001826005811115610e8857610e88611c83565b03610e9557506050919050565b6002826005811115610ea957610ea9611c83565b03610eb657506037919050565b6003826005811115610eca57610eca611c83565b03610ed757506032919050565b6004826005811115610eeb57610eeb611c83565b03610ef857506028919050565b6005826005811115610f0c57610f0c611c83565b03610f1957506046919050565b50603c919050565b610f71604080516101208101909152806000815260200160008152602001600081526020016000815260200160008152602001600081526020016000815260200160008152602001600081525090565b6003546040516331a9108f60e11b8152600481018490526001600160a01b03858116921690636352211e90602401602060405180830381865afa158015610fbc573d6000803e3d6000fd5b505050506040513d601f19601f82011682018060405250810190610fe09190611dc2565b6001600160a01b0316146110365760405162461bcd60e51b815260206004820152601e60248201527f506c6179657220646f6573206e6f74206f776e207468697320746f6b656e0000604482015260640161054c565b6001600160a01b03831660009081526006602090815260408083208584526005908101909252918290208251610120810190935280549091839160ff169081111561108357611083611c83565b600581111561109457611094611c83565b815260018201546020820152600282015460408201526003820154606082015260048201546080820152600582015460a0820152600682015460c0820152600782015460e0820152600890910154610100909101529392505050565b60066020526000908152604090208054819061110b90611d5b565b80601f016020809104026020016040519081016040528092919081815260200182805461113790611d5b565b80156111845780601f1061115957610100808354040283529160200191611184565b820191906000526020600020905b81548152906001019060200180831161116757829003601f168201915b5050505060018301546002840154600385015460049095015493946001600160a01b039092169390925085565b6000808260058111156111c6576111c6611c83565b036111d357506096919050565b60018260058111156111e7576111e7611c83565b036111f457506078919050565b600282600581111561120857611208611c83565b0361121557506064919050565b600382600581111561122957611229611c83565b036112365750605a919050565b600482600581111561124a5761124a611c83565b0361125757506050919050565b600582600581111561126b5761126b611c83565b036112785750606e919050565b60405162461bcd60e51b815260206004820152600d60248201527f496e76616c696420636c61737300000000000000000000000000000000000000604482015260640161054c565b6112c861158c565b6001600160a01b03811661130b576040517f1e4fbdf70000000000000000000000000000000000000000000000000000000081526000600482015260240161054c565b611314816115d2565b50565b600061035161132461168e565b836040517f19010000000000000000000000000000000000000000000000000000000000008152600281019290925260228201526042902090565b600084815260076020526040812060018101549091906001600160a01b0386811691161461139a5760018201546001600160a01b03166113a9565b60028201546001600160a01b03165b60018301549091506000906001600160a01b038781169116146113d05782600401546113d6565b82600301545b60018401549091506000906001600160a01b038881169116146113fd578360030154611403565b83600401545b6001600160a01b038816600090815260066020908152604080832086845260050190915281206002810180549394509092899290611442908490611f1c565b909155505060078101805490600061145983611ddf565b90915550506001600160a01b038816600090815260066020526040812060020180549161148583611ddf565b90915550506001600160a01b038816600090815260066020526040812060040180548992906114b5908490611f1c565b90915550506001600160a01b03841660009081526006602090815260408083208584526005019091528120600281018054919289926114f5908490611f1c565b909155505060088101805490600061150c83611ddf565b90915550506001600160a01b038516600090815260066020526040812060030180549161153883611ddf565b90915550506001600160a01b03851660009081526006602052604081206004018054899290611568908490611f1c565b909155506115779050826117b9565b611580816117b9565b50505050505050505050565b6000546001600160a01b03163314610d01576040517f118cdaa700000000000000000000000000000000000000000000000000000000815233600482015260240161054c565b600080546001600160a01b0383811673ffffffffffffffffffffffffffffffffffffffff19831681178455604051919092169283917f8be0079c531659141344cd1fd0a4f28419497f9722a3daafe3b4186f6b6457e09190a35050565b606061165c7f000000000000000000000000000000000000000000000000000000000000000060016117ec565b905090565b606061165c7f000000000000000000000000000000000000000000000000000000000000000060026117ec565b6000306001600160a01b037f0000000000000000000000000000000000000000000000000000000000000000161480156116e757507f000000000000000000000000000000000000000000000000000000000000000046145b1561171157507f000000000000000000000000000000000000000000000000000000000000000090565b61165c604080517f8b73c3c69bb8fe3d512ecc4cf759cc79239f7b179b0ffacaa9a75d522b39400f60208201527f0000000000000000000000000000000000000000000000000000000000000000918101919091527f000000000000000000000000000000000000000000000000000000000000000060608201524660808201523060a082015260009060c00160405160208183030381529060405280519060200120905090565b6117c68160010154610344565b816002015410611314576001810180549060006117e283611ddf565b91905055506117b9565b606060ff8314611806576117ff83611897565b9050610351565b81805461181290611d5b565b80601f016020809104026020016040519081016040528092919081815260200182805461183e90611d5b565b801561188b5780601f106118605761010080835404028352916020019161188b565b820191906000526020600020905b81548152906001019060200180831161186e57829003601f168201915b50505050509050610351565b606060006118a4836118d6565b604080516020808252818301909252919250600091906020820181803683375050509182525060208101929092525090565b600060ff8216601f811115610351576040517fb3512b0c00000000000000000000000000000000000000000000000000000000815260040160405180910390fd5b6001600160a01b038116811461131457600080fd5b60006020828403121561193e57600080fd5b813561194981611917565b9392505050565b60006020828403121561196257600080fd5b5035919050565b60006020828403121561197b57600080fd5b81356006811061194957600080fd5b803560ff8116811461199b57600080fd5b919050565b60008060008060008060008060008060006101608c8e0312156119c257600080fd5b8b359a5060208c01356119d481611917565b995060408c013580151581146119e957600080fd5b985060608c0135975060808c0135965060a08c0135611a0781611917565b955060c08c0135945060e08c01359350611a246101008d0161198a565b92506101208c013591506101408c013590509295989b509295989b9093969950565b634e487b7160e01b600052604160045260246000fd5b600060208284031215611a6e57600080fd5b813567ffffffffffffffff80821115611a8657600080fd5b818401915084601f830112611a9a57600080fd5b813581811115611aac57611aac611a46565b604051601f8201601f19908116603f01168101908382118183101715611ad457611ad4611a46565b81604052828152876020848701011115611aed57600080fd5b826020860160208301376000928101602001929092525095945050505050565b6000815180845260005b81811015611b3357602081850181015186830182015201611b17565b506000602082860101526020601f19601f83011685010191505092915050565b60e081526000611b6660e083018a611b0d565b6001600160a01b0398891660208401529690971660408201526060810194909452608084019290925260a0830152151560c09091015292915050565b7fff00000000000000000000000000000000000000000000000000000000000000881681526000602060e06020840152611bdf60e084018a611b0d565b8381036040850152611bf1818a611b0d565b606085018990526001600160a01b038816608086015260a0850187905284810360c08601528551808252602080880193509091019060005b81811015611c4557835183529284019291840191600101611c29565b50909c9b505050505050505050505050565b60008060408385031215611c6a57600080fd5b8235611c7581611917565b946020939093013593505050565b634e487b7160e01b600052602160045260246000fd5b815161012082019060068110611cbf57634e487b7160e01b600052602160045260246000fd5b808352506020830151602083015260408301516040830152606083015160608301526080830151608083015260a083015160a083015260c083015160c083015260e083015160e083015261010080840151818401525092915050565b60a081526000611d2e60a0830188611b0d565b90506001600160a01b03861660208301528460408301528360608301528260808301529695505050505050565b600181811c90821680611d6f57607f821691505b602082108103611d8f57634e487b7160e01b600052602260045260246000fd5b50919050565b634e487b7160e01b600052601160045260246000fd5b808202811582820484141761035157610351611d95565b600060208284031215611dd457600080fd5b815161194981611917565b600060018201611df157611df1611d95565b5060010190565b601f821115611e44576000816000526020600020601f850160051c81016020861015611e215750805b601f850160051c820191505b81811015611e4057828155600101611e2d565b5050505b505050565b815167ffffffffffffffff811115611e6357611e63611a46565b611e7781611e718454611d5b565b84611df8565b602080601f831160018114611eac5760008415611e945750858301515b600019600386901b1c1916600185901b178555611e40565b600085815260208120601f198616915b82811015611edb57888601518255948401946001909101908401611ebc565b5085821015611ef95787850151600019600388901b60f8161c191681555b5050505050600190811b01905550565b6020815260006119496020830184611b0d565b8082018082111561035157610351611d9556fea2646970667358221220f1ccbcefcc407d5b7843e372bbbdc86c910b83bf497ab8ed1f74087850de154f64736f6c63430008180033",
  "linkReferences": {},
  "deployedLinkReferences": {}
}