{
  "_format": "hh-sol-artifact-1",
  "contractName": "CardBattleGame",
  "sourceName": "contracts/CardGameBattle.sol",
  "abi": [
    {
      "inputs": [
        {
          "internalType": "address",
          "name": "_nftCollectionAddress",
          "type": "address"
        }
      ],
      "stateMutability": "nonpayable",
      "type": "constructor"
    },
    {
      "inputs": [],
      "name": "InvalidShortString",
      "type": "error"
    },
    {
      "inputs": [
        {
          "internalType": "address",
          "name": "owner",
          "type": "address"
        }
      ],
      "name": "OwnableInvalidOwner",
      "type": "error"
    },
    {
      "inputs": [
        {
          "internalType": "address",
          "name": "account",
          "type": "address"
        }
      ],
      "name": "OwnableUnauthorizedAccount",
      "type": "error"
    },
    {
      "inputs": [
        {
          "internalType": "string",
          "name": "str",
          "type": "string"
        }
      ],
      "name": "StringTooLong",
      "type": "error"
    },
    {
      "anonymous": false,
      "inputs": [
        {
          "indexed": true,
          "internalType": "uint256",
          "name": "battleId",
          "type": "uint256"
        },
        {
          "indexed": false,
          "internalType": "string",
          "name": "name",
          "type": "string"
        },
        {
          "indexed": true,
          "internalType": "address",
          "name": "player1",
          "type": "address"
        }
      ],
      "name": "BattleRegistered",
      "type": "event"
    },
    {
      "anonymous": false,
      "inputs": [
        {
          "indexed": true,
          "internalType": "uint256",
          "name": "battleId",
          "type": "uint256"
        },
        {
          "indexed": true,
          "internalType": "address",
          "name": "winner",
          "type": "address"
        },
        {
          "indexed": true,
          "internalType": "address",
          "name": "loser",
          "type": "address"
        },
        {
          "indexed": false,
          "internalType": "uint256",
          "name": "winnerExp",
          "type": "uint256"
        },
        {
          "indexed": false,
          "internalType": "uint256",
          "name": "loserExp",
          "type": "uint256"
        }
      ],
      "name": "BattleResolved",
      "type": "event"
    },
    {
      "anonymous": false,
      "inputs": [],
      "name": "EIP712DomainChanged",
      "type": "event"
    },
    {
      "anonymous": false,
      "inputs": [
        {
          "indexed": true,
          "internalType": "address",
          "name": "previousOwner",
          "type": "address"
        },
        {
          "indexed": true,
          "internalType": "address",
          "name": "newOwner",
          "type": "address"
        }
      ],
      "name": "OwnershipTransferred",
      "type": "event"
    },
    {
      "anonymous": false,
      "inputs": [
        {
          "indexed": true,
          "internalType": "address",
          "name": "playerAddress",
          "type": "address"
        },
        {
          "indexed": false,
          "internalType": "string",
          "name": "name",
          "type": "string"
        }
      ],
      "name": "PlayerRegistered",
      "type": "event"
    },
    {
      "inputs": [
        {
          "internalType": "uint256",
          "name": "",
          "type": "uint256"
        }
      ],
      "name": "battles",
      "outputs": [
        {
          "internalType": "string",
          "name": "name",
          "type": "string"
        },
        {
          "internalType": "address",
          "name": "player1",
          "type": "address"
        },
        {
          "internalType": "address",
          "name": "player2",
          "type": "address"
        },
        {
          "internalType": "uint256",
          "name": "player1TokenId",
          "type": "uint256"
        },
        {
          "internalType": "uint256",
          "name": "player2TokenId",
          "type": "uint256"
        },
        {
          "internalType": "uint256",
          "name": "startTime",
          "type": "uint256"
        },
        {
          "internalType": "bool",
          "name": "resolved",
          "type": "bool"
        }
      ],
      "stateMutability": "view",
      "type": "function"
    },
    {
      "inputs": [],
      "name": "eip712Domain",
      "outputs": [
        {
          "internalType": "bytes1",
          "name": "fields",
          "type": "bytes1"
        },
        {
          "internalType": "string",
          "name": "name",
          "type": "string"
        },
        {
          "internalType": "string",
          "name": "version",
          "type": "string"
        },
        {
          "internalType": "uint256",
          "name": "chainId",
          "type": "uint256"
        },
        {
          "internalType": "address",
          "name": "verifyingContract",
          "type": "address"
        },
        {
          "internalType": "bytes32",
          "name": "salt",
          "type": "bytes32"
        },
        {
          "internalType": "uint256[]",
          "name": "extensions",
          "type": "uint256[]"
        }
      ],
      "stateMutability": "view",
      "type": "function"
    },
    {
      "inputs": [
        {
          "internalType": "enum CardBattleGame.CharacterClass",
          "name": "_class",
          "type": "uint8"
        }
      ],
      "name": "getBaseAttack",
      "outputs": [
        {
          "internalType": "uint256",
          "name": "",
          "type": "uint256"
        }
      ],
      "stateMutability": "pure",
      "type": "function"
    },
    {
      "inputs": [
        {
          "internalType": "enum CardBattleGame.CharacterClass",
          "name": "_class",
          "type": "uint8"
        }
      ],
      "name": "getBaseDefense",
      "outputs": [
        {
          "internalType": "uint256",
          "name": "",
          "type": "uint256"
        }
      ],
      "stateMutability": "pure",
      "type": "function"
    },
    {
      "inputs": [
        {
          "internalType": "enum CardBattleGame.CharacterClass",
          "name": "_class",
          "type": "uint8"
        }
      ],
      "name": "getBaseHealth",
      "outputs": [
        {
          "internalType": "uint256",
          "name": "",
          "type": "uint256"
        }
      ],
      "stateMutability": "pure",
      "type": "function"
    },
    {
      "inputs": [
        {
          "internalType": "enum CardBattleGame.CharacterClass",
          "name": "_class",
          "type": "uint8"
        }
      ],
      "name": "getBaseMana",
      "outputs": [
        {
          "internalType": "uint256",
          "name": "",
          "type": "uint256"
        }
      ],
      "stateMutability": "pure",
      "type": "function"
    },
    {
      "inputs": [
        {
          "internalType": "address",
          "name": "_player",
          "type": "address"
        },
        {
          "internalType": "uint256",
          "name": "_tokenId",
          "type": "uint256"
        }
      ],
      "name": "getCharacterStats",
      "outputs": [
        {
          "components": [
            {
              "internalType": "enum CardBattleGame.CharacterClass",
              "name": "class",
              "type": "uint8"
            },
            {
              "internalType": "uint256",
              "name": "level",
              "type": "uint256"
            },
            {
              "internalType": "uint256",
              "name": "exp",
              "type": "uint256"
            },
            {
              "internalType": "uint256",
              "name": "health",
              "type": "uint256"
            },
            {
              "internalType": "uint256",
              "name": "mana",
              "type": "uint256"
            },
            {
              "internalType": "uint256",
              "name": "attack",
              "type": "uint256"
            },
            {
              "internalType": "uint256",
              "name": "defense",
              "type": "uint256"
            },
            {
              "internalType": "uint256",
              "name": "wins",
              "type": "uint256"
            },
            {
              "internalType": "uint256",
              "name": "losses",
              "type": "uint256"
            }
          ],
          "internalType": "struct CardBattleGame.CharacterStats",
          "name": "",
          "type": "tuple"
        }
      ],
      "stateMutability": "view",
      "type": "function"
    },
    {
      "inputs": [
        {
          "internalType": "uint256",
          "name": "_level",
          "type": "uint256"
        }
      ],
      "name": "getRequiredExp",
      "outputs": [
        {
          "internalType": "uint256",
          "name": "",
          "type": "uint256"
        }
      ],
      "stateMutability": "pure",
      "type": "function"
    },
    {
      "inputs": [
        {
          "internalType": "address",
          "name": "addr",
          "type": "address"
        }
      ],
      "name": "isPlayer",
      "outputs": [
        {
          "internalType": "bool",
          "name": "",
          "type": "bool"
        }
      ],
      "stateMutability": "view",
      "type": "function"
    },
    {
      "inputs": [],
      "name": "nextBattleId",
      "outputs": [
        {
          "internalType": "uint256",
          "name": "",
          "type": "uint256"
        }
      ],
      "stateMutability": "view",
      "type": "function"
    },
    {
      "inputs": [],
      "name": "nftCollection",
      "outputs": [
        {
          "internalType": "contract IERC721Enumerable",
          "name": "",
          "type": "address"
        }
      ],
      "stateMutability": "view",
      "type": "function"
    },
    {
      "inputs": [],
      "name": "owner",
      "outputs": [
        {
          "internalType": "address",
          "name": "",
          "type": "address"
        }
      ],
      "stateMutability": "view",
      "type": "function"
    },
    {
      "inputs": [
        {
          "internalType": "address",
          "name": "",
          "type": "address"
        }
      ],
      "name": "players",
      "outputs": [
        {
          "internalType": "string",
          "name": "name",
          "type": "string"
        },
        {
          "internalType": "address",
          "name": "playerAddress",
          "type": "address"
        },
        {
          "internalType": "uint256",
          "name": "totalWins",
          "type": "uint256"
        },
        {
          "internalType": "uint256",
          "name": "totalLosses",
          "type": "uint256"
        },
        {
          "internalType": "uint256",
          "name": "experience",
          "type": "uint256"
        }
      ],
      "stateMutability": "view",
      "type": "function"
    },
    {
      "inputs": [
        {
          "internalType": "string",
          "name": "_battleName",
          "type": "string"
        }
      ],
      "name": "registerBattle",
      "outputs": [
        {
          "internalType": "uint256",
          "name": "",
          "type": "uint256"
        }
      ],
      "stateMutability": "nonpayable",
      "type": "function"
    },
    {
      "inputs": [
        {
          "internalType": "string",
          "name": "_name",
          "type": "string"
        }
      ],
      "name": "registerPlayer",
      "outputs": [],
      "stateMutability": "nonpayable",
      "type": "function"
    },
    {
      "inputs": [],
      "name": "renounceOwnership",
      "outputs": [],
      "stateMutability": "nonpayable",
      "type": "function"
    },
    {
      "inputs": [
        {
          "internalType": "uint256",
          "name": "_battleId",
          "type": "uint256"
        },
        {
          "internalType": "address",
          "name": "_player2",
          "type": "address"
        },
        {
          "internalType": "uint256",
          "name": "_player1TokenId",
          "type": "uint256"
        },
        {
          "internalType": "uint256",
          "name": "_player2TokenId",
          "type": "uint256"
        },
        {
          "internalType": "address",
          "name": "_winner",
          "type": "address"
        },
        {
          "internalType": "uint256",
          "name": "_winnerExp",
          "type": "uint256"
        },
        {
          "internalType": "uint256",
          "name": "_loserExp",
          "type": "uint256"
        },
        {
          "internalType": "uint8",
          "name": "v",
          "type": "uint8"
        },
        {
          "internalType": "bytes32",
          "name": "r",
          "type": "bytes32"
        },
        {
          "internalType": "bytes32",
          "name": "s",
          "type": "bytes32"
        }
      ],
      "name": "resolveBattle",
      "outputs": [],
      "stateMutability": "nonpayable",
      "type": "function"
    },
    {
      "inputs": [],
      "name": "totalBattle",
      "outputs": [
        {
          "internalType": "uint256",
          "name": "",
          "type": "uint256"
        }
      ],
      "stateMutability": "view",
      "type": "function"
    },
    {
      "inputs": [
        {
          "internalType": "address",
          "name": "newOwner",
          "type": "address"
        }
      ],
      "name": "transferOwnership",
      "outputs": [],
      "stateMutability": "nonpayable",
      "type": "function"
    }
  ],
  "bytecode": "0x6101606040523480156200001257600080fd5b50604051620023ff380380620023ff833981016040819052620000359162000258565b604080518082018252600e81526d43617264426174746c6547616d6560901b602080830191909152825180840190935260018352603160f81b908301529033806200009b57604051631e4fbdf760e01b8152600060048201526024015b60405180910390fd5b620000a6816200018c565b50620000b4826001620001dc565b61012052620000c5816002620001dc565b61014052815160208084019190912060e052815190820120610100524660a0526200015360e05161010051604080517f8b73c3c69bb8fe3d512ecc4cf759cc79239f7b179b0ffacaa9a75d522b39400f60208201529081019290925260608201524660808201523060a082015260009060c00160405160208183030381529060405280519060200120905090565b60805250503060c052600380546001600160a01b0319166001600160a01b03929092169190911790556000600555600160045562000473565b600080546001600160a01b038381166001600160a01b0319831681178455604051919092169283917f8be0079c531659141344cd1fd0a4f28419497f9722a3daafe3b4186f6b6457e09190a35050565b6000602083511015620001fc57620001f48362000215565b90506200020f565b8162000209848262000331565b5060ff90505b92915050565b600080829050601f8151111562000243578260405163305a27a960e01b8152600401620000929190620003fd565b805162000250826200044e565b179392505050565b6000602082840312156200026b57600080fd5b81516001600160a01b03811681146200028357600080fd5b9392505050565b634e487b7160e01b600052604160045260246000fd5b600181811c90821680620002b557607f821691505b602082108103620002d657634e487b7160e01b600052602260045260246000fd5b50919050565b601f8211156200032c576000816000526020600020601f850160051c81016020861015620003075750805b601f850160051c820191505b81811015620003285782815560010162000313565b5050505b505050565b81516001600160401b038111156200034d576200034d6200028a565b62000365816200035e8454620002a0565b84620002dc565b602080601f8311600181146200039d5760008415620003845750858301515b600019600386901b1c1916600185901b17855562000328565b600085815260208120601f198616915b82811015620003ce57888601518255948401946001909101908401620003ad565b5085821015620003ed5787850151600019600388901b60f8161c191681555b5050505050600190811b01905550565b60006020808352835180602085015260005b818110156200042d578581018301518582016040015282016200040f565b506000604082860101526040601f19601f8301168501019250505092915050565b80516020808301519190811015620002d65760001960209190910360031b1b16919050565b60805160a05160c05160e051610100516101205161014051611f31620004ce60003960006113e4015260006113b201526000611804015260006117dc01526000611737015260006117610152600061178b0152611f316000f3fe608060405234801561001057600080fd5b50600436106101515760003560e01c806384b0196e116100cd578063bb6ae9dd11610081578063e50976a311610066578063e50976a3146102db578063e534b4ad146102ee578063f2fde38b1461030157600080fd5b8063bb6ae9dd14610297578063e2eb41ff146102b757600080fd5b806399c8268b116100b257806399c8268b14610268578063b3446f8514610271578063b57f99bd1461028457600080fd5b806384b0196e1461023c5780638da5cb5b1461025757600080fd5b806341fea93111610124578063606d2e9611610109578063606d2e96146101e15780636588103b14610207578063715018a61461023257600080fd5b806341fea931146101bb5780635a479890146101ce57600080fd5b806309c95e1014610156578063124cc8fc1461017e5780632f9f11d41461019f57806331a6ff66146101b2575b600080fd5b61016961016436600461191d565b610314565b60405190151581526020015b60405180910390f35b61019161018c366004611941565b610344565b604051908152602001610175565b6101916101ad36600461195a565b610357565b61019160045481565b6101916101c936600461195a565b610426565b6101916101dc366004611991565b6104ed565b6101f46101ef366004611941565b61063f565b6040516101759796959493929190611a88565b60035461021a906001600160a01b031681565b6040516001600160a01b039091168152602001610175565b61023a610714565b005b610244610728565b6040516101759796959493929190611ad7565b6000546001600160a01b031661021a565b61019160055481565b61023a61027f366004611991565b61078a565b61019161029236600461195a565b61087c565b6102aa6102a5366004611b8c565b61094b565b6040516101759190611bce565b6102ca6102c536600461191d565b610b1a565b604051610175959493929190611c50565b6101916102e936600461195a565b610bdb565b61023a6102fc366004611c90565b610cea565b61023a61030f36600461191d565b6112b1565b6001600160a01b0381166000908152600660205260408120805482919061033a90611d27565b9050119050919050565b6000610351826064611d77565b92915050565b60008082600581111561036c5761036c611bb8565b0361037957506050919050565b600182600581111561038d5761038d611bb8565b0361039a57506046919050565b60028260058111156103ae576103ae611bb8565b036103bb5750604b919050565b60038260058111156103cf576103cf611bb8565b036103dc57506055919050565b60048260058111156103f0576103f0611bb8565b036103fd5750605a919050565b600582600581111561041157610411611bb8565b0361041e5750603c919050565b506046919050565b60008082600581111561043b5761043b611bb8565b0361044857506032919050565b600182600581111561045c5761045c611bb8565b036104695750603c919050565b600282600581111561047d5761047d611bb8565b0361048a57506046919050565b600382600581111561049e5761049e611bb8565b036104ab5750603c919050565b60048260058111156104bf576104bf611bb8565b036104cc57506064919050565b60058260058111156104e0576104e0611bb8565b0361041e5750605a919050565b600480546000918291908261050183611d8e565b909155506040805160e08101825285815233602080830191909152600082840181905260608301819052608083018190524260a084015260c0830181905284815260079091529190912081519293509091819061055e9082611df8565b5060208201516001820180546001600160a01b0392831673ffffffffffffffffffffffffffffffffffffffff19918216179091556040840151600284018054919093169116179055606082015160038201556080820151600482015560a082015160058083019190915560c0909201516006909101805491151560ff1990921691909117905580549060006105f283611d8e565b9190505550336001600160a01b0316817f98d2fd15d6c82dec8bb1829d58887fba2b80fb139186c056f9e66134c1b62f4e856040516106319190611eb8565b60405180910390a392915050565b60076020526000908152604090208054819061065a90611d27565b80601f016020809104026020016040519081016040528092919081815260200182805461068690611d27565b80156106d35780601f106106a8576101008083540402835291602001916106d3565b820191906000526020600020905b8154815290600101906020018083116106b657829003601f168201915b5050506001840154600285015460038601546004870154600588015460069098015496976001600160a01b0394851697939094169550909350919060ff1687565b61071c611308565b610726600061134e565b565b60006060806000806000606061073c6113ab565b6107446113dd565b604080516000808252602082019092527f0f000000000000000000000000000000000000000000000000000000000000009b939a50919850469750309650945092509050565b33600090815260066020526040902080546107a490611d27565b1590506107f85760405162461bcd60e51b815260206004820152601960248201527f506c6179657220616c726561647920726567697374657265640000000000000060448201526064015b60405180910390fd5b3360009081526006602052604090206108118282611df8565b503360008181526006602052604090819020600101805473ffffffffffffffffffffffffffffffffffffffff191683179055517fe04d23b73ae3d3b27074da9719b5a4cd521395aaf86bfe7e374933ecb567731a90610871908490611eb8565b60405180910390a250565b60008082600581111561089157610891611bb8565b0361089e5750603c919050565b60018260058111156108b2576108b2611bb8565b036108bf57506050919050565b60028260058111156108d3576108d3611bb8565b036108e057506037919050565b60038260058111156108f4576108f4611bb8565b0361090157506032919050565b600482600581111561091557610915611bb8565b0361092257506028919050565b600582600581111561093657610936611bb8565b0361094357506046919050565b50603c919050565b61099b604080516101208101909152806000815260200160008152602001600081526020016000815260200160008152602001600081526020016000815260200160008152602001600081525090565b6003546040516331a9108f60e11b8152600481018490526001600160a01b03858116921690636352211e90602401602060405180830381865afa1580156109e6573d6000803e3d6000fd5b505050506040513d601f19601f82011682018060405250810190610a0a9190611ecb565b6001600160a01b031614610a605760405162461bcd60e51b815260206004820152601e60248201527f506c6179657220646f6573206e6f74206f776e207468697320746f6b656e000060448201526064016107ef565b6001600160a01b03831660009081526006602090815260408083208584526005908101909252918290208251610120810190935280549091839160ff1690811115610aad57610aad611bb8565b6005811115610abe57610abe611bb8565b815260018201546020820152600282015460408201526003820154606082015260048201546080820152600582015460a0820152600682015460c0820152600782015460e0820152600890910154610100909101529392505050565b600660205260009081526040902080548190610b3590611d27565b80601f0160208091040260200160405190810160405280929190818152602001828054610b6190611d27565b8015610bae5780601f10610b8357610100808354040283529160200191610bae565b820191906000526020600020905b815481529060010190602001808311610b9157829003601f168201915b5050505060018301546002840154600385015460049095015493946001600160a01b039092169390925085565b600080826005811115610bf057610bf0611bb8565b03610bfd57506096919050565b6001826005811115610c1157610c11611bb8565b03610c1e57506078919050565b6002826005811115610c3257610c32611bb8565b03610c3f57506064919050565b6003826005811115610c5357610c53611bb8565b03610c605750605a919050565b6004826005811115610c7457610c74611bb8565b03610c8157506050919050565b6005826005811115610c9557610c95611bb8565b03610ca25750606e919050565b60405162461bcd60e51b815260206004820152600d60248201527f496e76616c696420636c6173730000000000000000000000000000000000000060448201526064016107ef565b60008a8152600760205260409020600681015460ff1615610d4d5760405162461bcd60e51b815260206004820152601760248201527f426174746c6520616c7265616479207265736f6c76656400000000000000000060448201526064016107ef565b60028101546001600160a01b031615610dce5760405162461bcd60e51b815260206004820152602260248201527f426174746c6520616c7265616479206861732061207365636f6e6420706c617960448201527f657200000000000000000000000000000000000000000000000000000000000060648201526084016107ef565b6001600160a01b038a1615801590610df6575060018101546001600160a01b038b8116911614155b610e425760405162461bcd60e51b815260206004820152601760248201527f496e76616c696420706c6179657232206164647265737300000000000000000060448201526064016107ef565b60018101546003546040516331a9108f60e11b8152600481018c90526001600160a01b039283169290911690636352211e90602401602060405180830381865afa158015610e94573d6000803e3d6000fd5b505050506040513d601f19601f82011682018060405250810190610eb89190611ecb565b6001600160a01b031614610f195760405162461bcd60e51b815260206004820152602260248201527f506c6179657231206d757374206f776e2074686520737065636966696564204e604482015261119560f21b60648201526084016107ef565b6003546040516331a9108f60e11b8152600481018a90526001600160a01b038c8116921690636352211e90602401602060405180830381865afa158015610f64573d6000803e3d6000fd5b505050506040513d601f19601f82011682018060405250810190610f889190611ecb565b6001600160a01b031614610fe95760405162461bcd60e51b815260206004820152602260248201527f506c6179657232206d757374206f776e2074686520737065636966696564204e604482015261119560f21b60648201526084016107ef565b60018101546001600160a01b03888116911614806110185750896001600160a01b0316876001600160a01b0316145b6110645760405162461bcd60e51b815260206004820152600e60248201527f496e76616c69642077696e6e657200000000000000000000000000000000000060448201526064016107ef565b604080517f9dc5a2c1ae3cfae9adae7dfbfd20bee9776b81f2ce900e2ab9295b871aec962460208201529081018c90526001600160a01b03808c166060830152608082018b905260a082018a9052881660c082015260e0810187905261010081018690526000906101200160405160208183030381529060405280519060200120905060006110f28261140a565b90506111066000546001600160a01b031690565b6001600160a01b03166001828888886040516000815260200160405260405161114b949392919093845260ff9290921660208401526040830152606082015260800190565b6020604051602081039080840390855afa15801561116d573d6000803e3d6000fd5b505050602060405103516001600160a01b0316146111cd5760405162461bcd60e51b815260206004820152601160248201527f496e76616c6964207369676e617475726500000000000000000000000000000060448201526064016107ef565b60028301805473ffffffffffffffffffffffffffffffffffffffff19166001600160a01b038e16179055600383018b9055600483018a905560068301805460ff191660011790556112208d8a8a8a611452565b60018301546001600160a01b038a811691161461124a5760018301546001600160a01b031661124c565b8b5b6001600160a01b0316896001600160a01b03168e7f9ce4b2a03ea6b685ac0ed683f01e0ff861705a76fd5c73c688306878315a959d8b8b60405161129a929190918252602082015260400190565b60405180910390a450505050505050505050505050565b6112b9611308565b6001600160a01b0381166112fc576040517f1e4fbdf7000000000000000000000000000000000000000000000000000000008152600060048201526024016107ef565b6113058161134e565b50565b6000546001600160a01b03163314610726576040517f118cdaa70000000000000000000000000000000000000000000000000000000081523360048201526024016107ef565b600080546001600160a01b0383811673ffffffffffffffffffffffffffffffffffffffff19831681178455604051919092169283917f8be0079c531659141344cd1fd0a4f28419497f9722a3daafe3b4186f6b6457e09190a35050565b60606113d87f0000000000000000000000000000000000000000000000000000000000000000600161167f565b905090565b60606113d87f0000000000000000000000000000000000000000000000000000000000000000600261167f565b600061035161141761172a565b836040517f19010000000000000000000000000000000000000000000000000000000000008152600281019290925260228201526042902090565b600084815260076020526040812060018101549091906001600160a01b0386811691161461148d5760018201546001600160a01b031661149c565b60028201546001600160a01b03165b60018301549091506000906001600160a01b038781169116146114c35782600401546114c9565b82600301545b60018401549091506000906001600160a01b038881169116146114f05783600301546114f6565b83600401545b6001600160a01b038816600090815260066020908152604080832086845260050190915281206002810180549394509092899290611535908490611ee8565b909155505060078101805490600061154c83611d8e565b90915550506001600160a01b038816600090815260066020526040812060020180549161157883611d8e565b90915550506001600160a01b038816600090815260066020526040812060040180548992906115a8908490611ee8565b90915550506001600160a01b03841660009081526006602090815260408083208584526005019091528120600281018054919289926115e8908490611ee8565b90915550506008810180549060006115ff83611d8e565b90915550506001600160a01b038516600090815260066020526040812060030180549161162b83611d8e565b90915550506001600160a01b0385166000908152600660205260408120600401805489929061165b908490611ee8565b9091555061166a905082611855565b61167381611855565b50505050505050505050565b606060ff83146116995761169283611888565b9050610351565b8180546116a590611d27565b80601f01602080910402602001604051908101604052809291908181526020018280546116d190611d27565b801561171e5780601f106116f35761010080835404028352916020019161171e565b820191906000526020600020905b81548152906001019060200180831161170157829003601f168201915b50505050509050610351565b6000306001600160a01b037f00000000000000000000000000000000000000000000000000000000000000001614801561178357507f000000000000000000000000000000000000000000000000000000000000000046145b156117ad57507f000000000000000000000000000000000000000000000000000000000000000090565b6113d8604080517f8b73c3c69bb8fe3d512ecc4cf759cc79239f7b179b0ffacaa9a75d522b39400f60208201527f0000000000000000000000000000000000000000000000000000000000000000918101919091527f000000000000000000000000000000000000000000000000000000000000000060608201524660808201523060a082015260009060c00160405160208183030381529060405280519060200120905090565b6118628160010154610344565b8160020154106113055760018101805490600061187e83611d8e565b9190505550611855565b60606000611895836118c7565b604080516020808252818301909252919250600091906020820181803683375050509182525060208101929092525090565b600060ff8216601f811115610351576040517fb3512b0c00000000000000000000000000000000000000000000000000000000815260040160405180910390fd5b6001600160a01b038116811461130557600080fd5b60006020828403121561192f57600080fd5b813561193a81611908565b9392505050565b60006020828403121561195357600080fd5b5035919050565b60006020828403121561196c57600080fd5b81356006811061193a57600080fd5b634e487b7160e01b600052604160045260246000fd5b6000602082840312156119a357600080fd5b813567ffffffffffffffff808211156119bb57600080fd5b818401915084601f8301126119cf57600080fd5b8135818111156119e1576119e161197b565b604051601f8201601f19908116603f01168101908382118183101715611a0957611a0961197b565b81604052828152876020848701011115611a2257600080fd5b826020860160208301376000928101602001929092525095945050505050565b6000815180845260005b81811015611a6857602081850181015186830182015201611a4c565b506000602082860101526020601f19601f83011685010191505092915050565b60e081526000611a9b60e083018a611a42565b6001600160a01b0398891660208401529690971660408201526060810194909452608084019290925260a0830152151560c09091015292915050565b7fff00000000000000000000000000000000000000000000000000000000000000881681526000602060e06020840152611b1460e084018a611a42565b8381036040850152611b26818a611a42565b606085018990526001600160a01b038816608086015260a0850187905284810360c08601528551808252602080880193509091019060005b81811015611b7a57835183529284019291840191600101611b5e565b50909c9b505050505050505050505050565b60008060408385031215611b9f57600080fd5b8235611baa81611908565b946020939093013593505050565b634e487b7160e01b600052602160045260246000fd5b815161012082019060068110611bf457634e487b7160e01b600052602160045260246000fd5b808352506020830151602083015260408301516040830152606083015160608301526080830151608083015260a083015160a083015260c083015160c083015260e083015160e083015261010080840151818401525092915050565b60a081526000611c6360a0830188611a42565b90506001600160a01b03861660208301528460408301528360608301528260808301529695505050505050565b6000806000806000806000806000806101408b8d031215611cb057600080fd5b8a35995060208b0135611cc281611908565b985060408b0135975060608b0135965060808b0135611ce081611908565b955060a08b0135945060c08b0135935060e08b013560ff81168114611d0457600080fd5b809350506101008b013591506101208b013590509295989b9194979a5092959850565b600181811c90821680611d3b57607f821691505b602082108103611d5b57634e487b7160e01b600052602260045260246000fd5b50919050565b634e487b7160e01b600052601160045260246000fd5b808202811582820484141761035157610351611d61565b600060018201611da057611da0611d61565b5060010190565b601f821115611df3576000816000526020600020601f850160051c81016020861015611dd05750805b601f850160051c820191505b81811015611def57828155600101611ddc565b5050505b505050565b815167ffffffffffffffff811115611e1257611e1261197b565b611e2681611e208454611d27565b84611da7565b602080601f831160018114611e5b5760008415611e435750858301515b600019600386901b1c1916600185901b178555611def565b600085815260208120601f198616915b82811015611e8a57888601518255948401946001909101908401611e6b565b5085821015611ea85787850151600019600388901b60f8161c191681555b5050505050600190811b01905550565b60208152600061193a6020830184611a42565b600060208284031215611edd57600080fd5b815161193a81611908565b8082018082111561035157610351611d6156fea26469706673582212201b1eab0c1779b19ed0e764c5082f71f10e8db3867761f008b67f148d552f882064736f6c63430008180033",
  "linkReferences": {},
  "deployedLinkReferences": {}
}